:100000000C9434000C943E000C943E000C943E0082
:100010000C943E000C943E000C943E000C943E0068
:100020000C943E000C943E000C943E000C943E0058
:100030000C943E000C943E000C943E000C943E0048
:100040000C943E000C943E000C943E000C943E0038
:100050000C943E000C943E000C943E000C943E0028
:100060000C943E000C943E0011241FBECFEFD8E04C
:10007000DEBFCDBF0E944E000C9463000C940000C4
:1000800020E030E007C0A99BFECF85B3826085BB2E
:100090002F5F3F4F2E343105B4F3089516BC82E034
:1000A00084BD85E085BD88EC87BD84B1806284B95C
:1000B00085B1806285B90E94400085B18F7D85B988
:0A00C0000E944000F5CFF894FFCF36
:00000001FF
