:100000000C9434000C9449000C9449000C94490061
:100010000C9449000C9449000C9449000C9449003C
:100020000C9449000C9449000C9449000C9449002C
:100030000C9449000C9449000C9449000C9449001C
:100040000C9449000C9449000C9449000C9449000C
:100050000C9449000C9449000C9449000C944900FC
:100060000C9449000C94490011241FBECFEFD8E036
:10007000DEBFCDBF11E0A0E0B1E0E4E1F1E002C0FD
:1000800005900D92AA30B107D9F70E9478000C9420
:1000900088000C9400001092C50087E68093C4008D
:1000A000E1ECF0E080818861808380818B7F8083B8
:1000B000E2ECF0E080818660808380818F7C8083A9
:1000C0008081877F808308959091C00095FFFCCF49
:1000D0008093C6000895CF93DF93EC0103C00E9484
:1000E0006400219688818111FACFDF91CF91089524
:1000F0000E944B0080E091E00E946B002FEF83EDA7
:1001000090E3215080409040E1F700C00000F2CF22
:04011000F894FFCF91
:0A01140048656C6C6F200D0A0000B6
:00000001FF
