S025000064636D6F746F7270726F6772616D5F7573696E6766756E6374696F6E732E73726563B1
S11300000C9434000C943E000C943E000C943E007E
S11300100C943E000C943E000C943E000C943E0064
S11300200C943E000C943E000C943E000C943E0054
S11300300C943E000C943E000C943E000C943E0044
S11300400C943E000C943E000C943E000C943E0034
S11300500C943E000C943E000C943E000C943E0024
S11300600C943E000C943E0011241FBECFEFD8E048
S1130070DEBFCDBF0E9466000C947A000C94000091
S113008007C08FE99FE00197F1F700C00000C901A4
S11300909C0121503109892BA1F7089525B12160D4
S11300A025B925B12D7F25B90E944000089525B1B9
S11300B0226025B925B12E7F25B90E9440000895FC
S11300C025B12C7F25B90E944000089584B1836036
S11300D084B980ED97E00E944E0080ED97E00E9485
S11300E0600080ED97E00E94570080ED97E00E9449
S10B00F06000EFCFF894FFCF8C
S9030000FC
