:100000000C9434000C9449000C9449000C94490061
:100010000C9449000C9449000C9449000C9449003C
:100020000C9449000C9449000C9449000C9449002C
:100030000C9449000C9449000C9449000C9449001C
:100040000C9449000C9449000C9449000C9449000C
:100050000C9449000C9449000C9449000C944900FC
:100060000C9449000C94490011241FBECFEFD8E036
:10007000DEBFCDBF11E0A0E0B1E0ECE5F4E002C0EE
:1000800005900D92AE31B107D9F70E94DD010C94B5
:100090002C020C94000007C000008F5F01C080E0BC
:1000A0008031D0F3C9019C0121503109892BB9F766
:1000B000089585B1886085B981E090E00E944B0089
:1000C00085B1877F85B982E390E00E944B00089557
:1000D0009BB1937C9BB983FF03C09BB194609BB998
:1000E00082FF03C09BB198609BB981FF03C09BB1A5
:1000F00090619BB980FF03C08BB180628BB90E9475
:1001000059000895CF93C82F662321F085B18061EF
:1001100085B903C085B18F7E85B98C2F82958F708C
:100120000E9468008C2F8F700E946800CF91089504
:10013000CF93DF9305C088EE93E00E944B00CE0181
:10014000EC012197892BB9F7DF91CF910895CF93D7
:10015000C82F60E00E948200C150C23020F482E0CB
:1001600090E00E949800CF91089561E00E94820083
:100170000895882311F090E401C090E0862F8F70DD
:10018000890F80680E94A7000895CF93DF93EC0148
:1001900003C021960E94B50088818111FACFDF91BA
:1001A000CF91089581E00E94A700089584B18061F5
:1001B00084B984B1886084B98AB18C638AB984E1D6
:1001C00090E00E94980085B18F7E85B985B1877FC8
:1001D00085B983E00E94680085E090E00E94980065
:1001E00083E00E94680086E990E00E944B0083E073
:1001F0000E94680086E990E00E944B0082E00E9425
:10020000680086E990E00E944B0088E20E94A70007
:1002100088E00E94A70081E00E94A70086E00E947B
:10022000A7008CE00E94A7000895CF93DF93EC0114
:100230008A30910568F09C01ADECBCEC0E941D0277
:100240009695879596958795969587950E94150121
:100250009E01ADECBCEC0E941D029695879596958B
:100260008795969587959C01220F331F880F991FBC
:10027000880F991F880F991F820F931F9E01281BBB
:10028000390BC901805D0E94B500DF91CF910895BF
:100290001092C50087E68093C40088E08093C10077
:1002A00086E08093C20008959091C00095FFFCCF36
:1002B0008093C6000895CF93DF93EC0103C021968D
:1002C0000E94540188818111FACFDF91CF91089566
:1002D0000F931F93CF93DF9300D000D000D0CDB702
:1002E000DEB7FC01892BA9F580E30E94540145C0CB
:1002F0009F01ADECBCEC0E941D02969587959695EA
:100300008795969587959C01220F331F880F991F1B
:10031000880F991F880F991F820F931F9F01281B19
:10032000390BC901A1E0B0E0AC0FBD1FA40FB51F90
:10033000805D8C939F01ADECBCEC0E941D02FC0122
:10034000F695E795F695E795F695E7954F5F5F4F3C
:1003500002C040E050E0309759F60AC0E1E0F0E01A
:10036000EC0FFD1FE00FF11F80810E945401A801D6
:100370008A0101501109452B89F726960FB6F8948A
:10038000DEBF0FBECDBFDF91CF911F910F910895BA
:1003900080E480937C0086E880937A000895EAE701
:1003A000F0E080818064808380917A0086FDFCCFBC
:1003B000809178009091790008950E94D6000E9463
:1003C00048010E94C80184B1816084B90E94CF01B4
:1003D0009C01A4EFB1E00E941D026B017C010B2E79
:1003E000BAE0F694E794D794C794BA95D1F7B02DB4
:1003F0000E94D20060E080E00E94B90080E091E0BD
:100400000E94C500C6010E94150187E091E00E948C
:10041000C5008AE091E00E945B01C6010E9468016C
:1004200088E191E00E945B0195B181E0892785B95F
:1004300084EF91E00E949800C9CFA29FB001B39FC2
:10044000C001A39F700D811D1124911DB29F700DDD
:0C045000811D1124911D0895F894FFCF28
:10045C0054656D703A200020430054656D706572D0
:0E046C0061747572653A200020430D0A00008D
:00000001FF
