:100000000C9434000C9440000C943E000C943E0080
:100010000C943E000C943E000C943E000C943E0068
:100020000C943E000C943E000C943E000C943E0058
:100030000C943E000C943E000C943E000C943E0048
:100040000C943E000C943E000C943E000C943E0038
:100050000C943E000C943E000C943E000C943E0028
:100060000C943E000C943E0011241FBECFEFD8E04C
:10007000DEBFCDBF0E945F000C948A000C9400008C
:100080001F920F920FB60F9211242F938F939F936D
:1000900085B1806185B92FEF83E294EF21508040D4
:1000A0009040E1F700C0000085B18F7E85B99F9137
:1000B0008F912F910F900FBE0F901F90189584B1C4
:1000C000806284B984B1806184B98AB18B7F8AB936
:1000D0008DB381608DBBE9E6F0E080818260808332
:1000E000789485B1806285B92FEF83ED90E321503C
:1000F00080409040E1F700C0000085B18F7D85B958
:100100002FEF83ED90E3215080409040E1F700C055
:080110000000E7CFF894FFCFD7
:00000001FF
