:100000000C9434000C943E000C943E000C943E0082
:100010000C943E000C943E000C943E000C943E0068
:100020000C943E000C943E000C943E000C943E0058
:100030000C943E000C943E000C943E000C943E0048
:100040000C943E000C943E000C943E000C943E0038
:100050000C943E000C943E000C943E000C943E0028
:100060000C943E000C943E0011241FBECFEFD8E04C
:10007000DEBFCDBF0E9440000C947D000C940000B8
:1000800084B1806384B985B1806285B985B18F7E82
:1000900085B92FEF8FE493EC215080409040E1F739
:1000A00000C0000085B18F7E85B985B18F7D85B98F
:1000B0002FEF83E294EF215080409040E1F700C0A1
:1000C000000085B1806185B985B18F7D85B92FEF3D
:1000D0008FE493EC215080409040E1F700C0000095
:1000E00085B18F7C85B92FEF83E294EF215080405A
:0E00F0009040E1F700C00000C6CFF894FFCFAB
:00000001FF
